:100000000C9434000C9451000C9451000C94510049
:100010000C9451000C9451000C9451000C9451001C
:100020000C9451000C9451000C9451000C94FD015F
:100030000C9451000C9451000C9451000C945100FC
:100040000C9451000C9451000C948A030C944F03AF
:100050000C9451000C9451000C9451000C945100DC
:100060000C9451000C94510011241FBECFEFD8E026
:10007000DEBFCDBF11E0A0E0B1E0E4E6FDE002C0EC
:1000800005900D92A235B107D9F722E0A2E5B1E0C3
:1000900001C01D92A838B207E1F70E941C010C9420
:1000A000B0060C94000087B1816087B988B18E7F5B
:1000B00088B92FEF89EF90E0215080409040E1F720
:1000C00000C0000088B1816088B9089587B18E7F33
:1000D00087B93099FECF309BFECF3099FECF08957F
:1000E00020E030E080E011C0309BFECF90EA9A958E
:1000F000F1F7309B05C090E0880F991F816001C027
:10010000880F3099FECF2F5F3F4F2830310564F3C1
:100110000895CF92DF92EF92FF920F931F93CF93A8
:10012000DF93F82EE92E162F072F0E9453000E940E
:1001300066000E947000C3E8D2E088830E947000CD
:1001400089830E9470008A830E9470008B830E94C2
:1001500070008C83488199813A812B81940F930F91
:10016000920F27B1216027B928B1216028B99813CF
:1001700026C06E01998188811F929F931F928F9351
:10018000C0E0D1E0DF93CF93EF92FF920E94C603CD
:10019000F601938182811F929F931F928F93DF9329
:1001A000CF930F931F930E94C603EDB7FEB77096CF
:1001B0000FB6F894FEBF0FBEEDBF81E001C080E036
:1001C000DF91CF911F910F91FF90EF90DF90CF9033
:1001D00008951092B90088E98093B80084E0809374
:1001E000BC00089584EA8093BC008091BC00882301
:1001F000E4F7089584E98093BC0008958093BB00E0
:1002000084E88093BC008091BC008823E4F70895C3
:1002100084EC8093BC008091BC008823E4F780913B
:10022000BB00089584E88093BC008091BC008823C3
:10023000E4F78091BB00089587E690E00E941003E8
:100240000E9453000E94E9000E94D9010E942102ED
:1002500078940E94E602FDCF9DEC899F912D112498
:10026000969596959695392F330F232F220F220FAF
:10027000230F821B20E1929F800D11240895982F57
:1002800092959F70990F292F220F220F920F8F7036
:10029000890F0895EF92FF920F931F93CF93DF93EF
:1002A000C82FD62F142FF22E0E94F20080ED0E944C
:1002B000FE0080E00E94FE008E2D0E942C010E9414
:1002C000FE00802F0E942C010E94FE008F2D0E94B4
:1002D0002C010E94FE0080E00E94FE00812F0E94FF
:1002E0002C010E94FE008D2F0E942C010E94FE0016
:1002F0008C2F0E942C010E94FE000E94FA00DF91C8
:10030000CF911F910F91FF90EF9008958F929F9240
:10031000AF92BF92CF92DF92EF92FF920F931F9313
:10032000CF93DF93EC016B015A0149010E94F20067
:1003300080ED0E94FE0080E00E94FE000E94FA0014
:100340000E94F20081ED0E94FE000E9408010E94BE
:100350003F01F70180830E9408010E943F01F801DC
:1003600080830E9408010E943F01F40180830E9463
:1003700008010E9408010E943F01F50180830E944C
:1003800008010E943F01F60180830E9412010E9431
:100390003F0188830E94FA00DF91CF911F910F9156
:1003A000FF90EF90DF90CF90BF90AF909F908F9095
:1003B0000895EF920F93E12C0CE026E14EE066E009
:1003C00088E10E944A010F91EF90089580915201B7
:1003D0009091530101969093530180935201809123
:1003E000520190915301029739F481E080935401B6
:1003F000109253011092520108951F920F920FB65E
:100400000F9211242F933F934F935F936F937F939A
:100410008F939F93AF93BF93EF93FF930E94E60157
:10042000FF91EF91BF91AF919F918F917F916F91CC
:100430005F914F913F912F910F900FBE0F901F90A2
:100440001895E1E8F0E08081886080838081846095
:10045000808383E294EF9093890080938800EFE695
:10046000F0E08081826080830895EF92FF920F9385
:100470001F93CF93DF93CDB7DEB7CE53D1400FB6E6
:10048000F894DEBF0FBECDBFCE01825C9E4F7C01D3
:100490008E01035C1E4F9E01245C3E4FAE01455C05
:1004A0005E4FBE01665C7E4F05970E948601C25C6E
:1004B000DE4F8881CE53D1401F928F93C35CDE4FB5
:1004C0008881CD53D1401F928F93C45CDE4F8881C9
:1004D000CC53D1401F928F93C75CDE4F8881C953A4
:1004E000D1401F928F93C65CDE4F8881CA53D140A2
:1004F0001F928F93C55CDE4F8881CB53D1401F92F2
:100500008F9388E091E09F938F930C5311401F933A
:100510000F930E94C603BE016D5C7E4FCE01835DCA
:100520009E4F0E948900D8010D900020E9F7119795
:100530008AE0E5E3F1E001900D928A95E1F7BE01D2
:10054000635D7E4FC8010E94BB03F801019000204B
:10055000E9F7319785E29AE0918380838DE090E01E
:1005600093838283D8010D900020E9F711978EE0E4
:10057000EFE3F1E001900D928A95E1F7BE016D5C29
:100580007E4FC8010E94BB03D8010D900020E9F7FF
:10059000119785E0EDE4F1E001900D928A95E1F785
:1005A000C8010E9432030FB6F894DEBF0FBECDBF64
:1005B000C25CDE4F0FB6F894DEBF0FBECDBFDF9139
:1005C000CF911F910F91FF90EF900895809154016A
:1005D000882321F00E943502109254010895E1EC25
:1005E000F0E08081886080830895E1ECF0E0808114
:1005F000806280830895E1ECF0E080818F7D8083CC
:100600000895E1ECF0E08081806180830895E1EC61
:10061000F0E080818068808308958091C60008950D
:100620009093C5008093C40086E08093C2000E942E
:10063000EF0281E0809356010E9401030E940703AC
:1006400080E3809357010895E1ECF0E08081877F9B
:1006500080831092560108950E94EF0281E08093FA
:1006600056010895CF93DF93EC0188818093570161
:100670000E94F502E1E006C0AE2FB0E0A95ABE4FDD
:100680008C93EF5FDE01AE0FB11D8C918111F4CF21
:10069000F0E0E95AFE4F1082DF91CF9108951F924A
:1006A0000F920FB60F9211242F933F934F935F93A6
:1006B0006F937F938F939F93AF93BF93EF93FF932A
:1006C0008091550190E0FC01E95AFE4F20812223E0
:1006D00061F0FC01E95AFE4F80818093C600809151
:1006E00055018F5F8093550104C0109255010E94FF
:1006F000FB02FF91EF91BF91AF919F918F917F91FD
:100700006F915F914F913F912F910F900FBE0F907E
:100710001F9018951F920F920FB60F9211242F93CE
:100720003F934F935F936F937F938F939F93AF9379
:10073000BF93EF93FF930E940D03833711F083352E
:1007400049F480915601882319F00E94240302C0C5
:100750000E942C03FF91EF91BF91AF919F918F91D8
:100760007F916F915F914F913F912F910F900FBEAD
:100770000F901F901895FB01DC010D900020E9F708
:10078000119701900D920020E1F70895AEE0B0E0DE
:10079000ECECF3E00C9487060D891E8986E08C83CF
:1007A0001A8309838FEF9FE79E838D83AE01475E97
:1007B0005F4F6F89788DCE0101960E94E803EF812B
:1007C000F885E00FF11F10822E96E4E00C94A3064A
:1007D000ABE0B0E0EEEEF3E00C9479066C017B0147
:1007E0008A01FC0117821682838181FFCCC1CE0170
:1007F00001963C01F6019381F70193FD859193FFEA
:1008000081917F01882309F4BAC1853239F493FDBF
:10081000859193FF81917F01853229F4B60190E0A3
:100820000E94DF05E7CF912C212C312CFFE1F3153D
:10083000D8F08B3279F038F4803279F08332A1F439
:10084000232D20611DC08D3261F0803369F4232D8A
:10085000216016C0832D8260382EE32DE4603E2E89
:100860002AC0F32DF8601DC037FC2DC020ED280FE5
:100870002A3040F08E32B9F436FC81C1232D206439
:10088000322E19C036FE06C08AE0989E200D112433
:10089000922E11C0EAE02E9E200D1124222EF32D5F
:1008A000F0623F2E08C08C3621F4832D8068382EEC
:1008B00002C0883641F4F70193FD859193FF819141
:1008C0007F018111B3CF982F9F7D9554933028F4E9
:1008D0000C5F1F4F9FE399830DC0833631F0833740
:1008E00071F0833509F059C021C0F80180818983F6
:1008F0000E5F1F4F88248394912C530113C028014D
:10090000F2E04F0E511CF801A080B18036FE03C00A
:10091000692D70E002C06FEF7FEFC5010E94D40522
:100920004C018201F32DFF773F2E16C0280122E0F3
:10093000420E511CF801A080B18036FE03C0692D23
:1009400070E002C06FEF7FEFC5010E94C9054C0146
:10095000F32DF0683F2E820133FC1BC0822D90E006
:1009600088169906B0F4B60180E290E00E94DF0597
:100970002A94F4CFF50137FC859137FE81915F0110
:10098000B60190E00E94DF0521102A9421E0821A2E
:1009900091088114910471F7E8C0843611F089360A
:1009A00041F5F80137FE07C0608171818281938132
:1009B0000C5F1F4F08C060817181072E000C880BEF
:1009C000990B0E5F1F4FF32DFF763F2E97FF09C047
:1009D00090958095709561957F4F8F4F9F4FF068F0
:1009E0003F2E2AE030E0A3010E941B06882E8618C5
:1009F00045C0853731F4232D2F7EB22E2AE030E01A
:100A000025C0932D997FB92E8F36C1F018F4883503
:100A100079F0B5C0803719F0883721F0B0C0E92FE0
:100A2000E061BE2EB4FE0DC0FB2DF460BF2E09C0E8
:100A300034FE0AC0292F2660B22E06C028E030E01E
:100A400005C020E130E002C020E132E0F801B7FE4D
:100A500007C060817181828193810C5F1F4F06C046
:100A60006081718180E090E00E5F1F4FA3010E94C2
:100A70001B06882E8618FB2DFF773F2E36FE0DC0F5
:100A8000232D2E7FA22E891458F434FE0BC032FC85
:100A900009C0832D8E7EA82E05C0B82CA32C03C0C0
:100AA000B82C01C0B92CA4FE0FC0FE01E80DF11D49
:100AB0008081803321F49A2D997EA92E09C0A2FE4F
:100AC00006C0B394B39404C08A2D867809F0B39419
:100AD000A3FC11C0A0FE06C0B21488F4280C922C0E
:100AE0009B180EC0B21460F4B60180E290E00E9440
:100AF000DF05B394F7CFB21418F42B1802C0982C6A
:100B0000212CA4FE10C0B60180E390E00E94DF0516
:100B1000A2FE17C0A1FC03C088E790E002C088E5F0
:100B200090E0B6010CC08A2D867859F0A1FE02C073
:100B30008BE201C080E2A7FC8DE2B60190E00E944A
:100B4000DF05891438F4B60180E390E00E94DF05E8
:100B50009A94F7CF8A94F301E80DF11D8081B601D4
:100B600090E00E94DF058110F5CF222009F442CEEB
:100B7000B60180E290E00E94DF052A94F6CFF601EC
:100B80008681978102C08FEF9FEF2B96E2E10C9454
:100B90009506FC010590615070400110D8F78095D2
:100BA00090958E0F9F1F0895FC0161507040019039
:100BB0000110D8F7809590958E0F9F1F08950F9381
:100BC0001F93CF93DF93FB01238121FD03C08FEFA0
:100BD0009FEF2CC022FF16C04681578124813581AA
:100BE0004217530744F4A081B1819D012F5F3F4F0D
:100BF000318320838C93268137812F5F3F4F37834A
:100C0000268314C08B01EC01FB010084F185E02DEB
:100C10000995892BE1F6D80116968D919C9117972D
:100C2000019617969C938E931697CE01DF91CF91E4
:100C30001F910F910895FA01AA27283051F1203110
:100C400081F1E8946F936E7F6E5F7F4F8F4F9F4F60
:100C5000AF4FB1E03ED0B4E03CD0670F781F891FA2
:100C60009A1FA11D680F791F8A1F911DA11D6A0F70
:100C7000711D811D911DA11D20D009F468943F9123
:100C80002AE0269F11243019305D3193DEF6CF0122
:100C90000895462F4770405D4193B3E00FD0C9F7E8
:100CA000F6CF462F4F70405D4A3318F0495D31FD55
:100CB0004052419302D0A9F7EACFB4E0A6959795A8
:100CC000879577956795BA95C9F70097610571057E
:100CD00008959B01AC010A2E0694579547953795C8
:100CE0002795BA95C9F7620F731F841F951FA01D22
:100CF00008952F923F924F925F926F927F928F92C0
:100D00009F92AF92BF92CF92DF92EF92FF920F939A
:100D10001F93CF93DF93CDB7DEB7CA1BDB0B0FB6A4
:100D2000F894DEBF0FBECDBF09942A883988488861
:100D30005F846E847D848C849B84AA84B984C884F7
:100D4000DF80EE80FD800C811B81AA81B981CE0FEE
:100D5000D11D0FB6F894DEBF0FBECDBFED010895D3
:040D6000F894FFCF35
:100D64002532642E2531640046656368613A202586
:100D74003032642F253032642F2530326420486F9E
:100D840072613A20253032643A253032643A253093
:100D940032640A0D0048756D656461643A2000543C
:100DA400656D70657261747572613A2000430A0D55
:020DB4000D0030
:00000001FF
