:100000000C9434000C9451000C9451000C94510049
:100010000C9451000C9451000C9451000C9451001C
:100020000C9451000C9451000C9451000C9451000C
:100030000C9451000C9451000C9451000C945100FC
:100040000C9451000C9451000C9451000C945100EC
:100050000C9451000C9451000C9451000C945100DC
:100060000C9451000C94510011241FBECFEFD8E026
:10007000DEBFCDBF11E0A0E0B1E0E2EDF9E002C0EB
:1000800005900D92A435B107D9F721E0A4E5B1E0C0
:1000900001C01D92A935B207E1F70E94E9000C9456
:1000A000E7040C94000087B1816087B988B18E7F26
:1000B00088B92FEF89EF90E0215080409040E1F720
:1000C00000C0000088B1816088B9089587B18E7F33
:1000D00087B93099FECF309BFECF3099FECF08957F
:1000E00020E030E080E011C0309BFECF90EA9A958E
:1000F000F1F7309B05C090E0880F991F816001C027
:10010000880F3099FECF2F5F3F4F2830310564F3C1
:100110000895CF92DF92EF92FF920F931F93CF93A8
:10012000DF93F82EE92E162F072F0E9453000E940E
:1001300066000E947000C4E5D1E088830E947000D0
:1001400089830E9470008A830E9470008B830E94C2
:1001500070008C83488199813A812B81940F930F91
:10016000920F27B1216027B928B1216028B99813CF
:1001700026C06E01998188811F929F931F928F9351
:10018000C0E0D1E0DF93CF93EF92FF920E94FD0198
:10019000F601938182811F929F931F928F93DF9329
:1001A000CF930F931F930E94FD01EDB7FEB770969A
:1001B0000FB6F894FEBF0FBEEDBF81E001C080E036
:1001C000DF91CF911F910F91FF90EF90DF90CF9033
:1001D0000895CF93DF93CDB7DEB7E0970FB6F894CD
:1001E000DEBF0FBECDBF87E690E00E94DE010E9419
:1001F00053000E948F01CE0142967C018E010F5E5A
:100200001F4F9E01205F3F4FAE01415F5F4FBE0118
:10021000625F7F4F05970E9492018A891F928F9398
:1002200089891F928F9388891F928F938D851F9242
:100230008F938E851F928F938F851F928F9388E067
:1002400091E09F938F930E5F1F4F1F930F930E9418
:10025000FD01C8010E94F0018FE391E00E94F001CE
:10026000BE01695F7F4FCE0101960E94890084E341
:1002700091E00E94F001CE0101960E94F0018EE310
:1002800091E00E94F00182E491E00E94F001CE0131
:1002900007960E94F00180E591E00E94F0019FEF37
:1002A00023ED80E3915020408040E1F700C0000042
:1002B0000FB6F894DEBF0FBECDBF9DCF88E480930C
:1002C000B800E9EBF0E080818C7F8083089584EAB8
:1002D0008093BC008091BC008823E4F7089580934C
:1002E000BB0084E88093BC008091BC008823E4F7C5
:1002F000089584E98093BC008091BC0084FDFCCF0C
:100300000895882311F084EC01C084E88093BC0038
:100310008091BC008823E4F78091BB0008950E947F
:100320005E0108958F929F92AF92BF92CF92DF921B
:10033000EF92FF920F931F93CF93DF93EC016B012A
:100340005A0149010E94670180ED0E946F0180E01F
:100350000E946F010E94670181ED0E946F0181E0A0
:100360000E948101F701808381E00E948101F801F0
:10037000808381E00E948101F401808381E00E94FA
:10038000810181E00E948101F501808381E00E946A
:100390008101F601808380E00E94810188830E94B0
:1003A0007901DF91CF911F910F91FF90EF90DF9036
:1003B000CF90BF90AF909F908F9008959093C5007D
:1003C0008093C40088E18093C10086E08093C200DE
:1003D00008959091C00095FFFCCF8093C6000895CA
:1003E000CF93DF93EC0103C021960E94E90188813D
:1003F0008111FACFDF91CF910895AEE0B0E0E3E054
:10040000F2E00C94BE040D891E8986E08C831A8369
:1004100009838FEF9FE79E838D83AE01475E5F4F19
:100420006F89788DCE0101960E941F02EF81F885B9
:10043000E00FF11F10822E96E4E00C94DA04ABE09A
:10044000B0E0E5E2F2E00C94B0046C017B018A01BB
:10045000FC0117821682838181FFCCC1CE010196F7
:100460003C01F6019381F70193FD859193FF819102
:100470007F01882309F4BAC1853239F493FD85914F
:1004800093FF81917F01853229F4B60190E00E94AB
:100490001604E7CF912C212C312CFFE1F315D8F075
:1004A0008B3279F038F4803279F08332A1F4232D45
:1004B00020611DC08D3261F0803369F4232D2160ED
:1004C00016C0832D8260382EE32DE4603E2E2AC0B4
:1004D000F32DF8601DC037FC2DC020ED280F2A3009
:1004E00040F08E32B9F436FC81C1232D2064322EC7
:1004F00019C036FE06C08AE0989E200D1124922E67
:1005000011C0EAE02E9E200D1124222EF32DF06260
:100510003F2E08C08C3621F4832D8068382E02C00F
:10052000883641F4F70193FD859193FF81917F0116
:100530008111B3CF982F9F7D9554933028F40C5F91
:100540001F4F9FE399830DC0833631F0833771F0DD
:10055000833509F059C021C0F801808189830E5F7D
:100560001F4F88248394912C530113C02801F2E07B
:100570004F0E511CF801A080B18036FE03C0692DDA
:1005800070E002C06FEF7FEFC5010E940B044C01C9
:100590008201F32DFF773F2E16C0280122E0420E84
:1005A000511CF801A080B18036FE03C0692D70E0B7
:1005B00002C06FEF7FEFC5010E9400044C01F32DD4
:1005C000F0683F2E820133FC1BC0822D90E088161C
:1005D0009906B0F4B60180E290E00E9416042A94D5
:1005E000F4CFF50137FC859137FE81915F01B601AB
:1005F00090E00E94160421102A9421E0821A9108AA
:100600008114910471F7E8C0843611F0893641F500
:10061000F80137FE07C060817181828193810C5F90
:100620001F4F08C060817181072E000C880B990B49
:100630000E5F1F4FF32DFF763F2E97FF09C0909559
:100640008095709561957F4F8F4F9F4FF0683F2E3B
:100650002AE030E0A3010E945204882E861845C08B
:10066000853731F4232D2F7EB22E2AE030E025C0CD
:10067000932D997FB92E8F36C1F018F4883579F013
:10068000B5C0803719F0883721F0B0C0E92FE0619C
:10069000BE2EB4FE0DC0FB2DF460BF2E09C034FE8B
:1006A0000AC0292F2660B22E06C028E030E005C01F
:1006B00020E130E002C020E132E0F801B7FE07C0DF
:1006C00060817181828193810C5F1F4F06C06081C0
:1006D000718180E090E00E5F1F4FA3010E945204E1
:1006E000882E8618FB2DFF773F2E36FE0DC0232D5A
:1006F0002E7FA22E891458F434FE0BC032FC09C0A0
:10070000832D8E7EA82E05C0B82CA32C03C0B82C38
:1007100001C0B92CA4FE0FC0FE01E80DF11D8081BF
:10072000803321F49A2D997EA92E09C0A2FE06C01D
:10073000B394B39404C08A2D867809F0B394A3FCD3
:1007400011C0A0FE06C0B21488F4280C922C9B188D
:100750000EC0B21460F4B60180E290E00E9416046C
:10076000B394F7CFB21418F42B1802C0982C212C94
:10077000A4FE10C0B60180E390E00E941604A2FE21
:1007800017C0A1FC03C088E790E002C088E590E0B4
:10079000B6010CC08A2D867859F0A1FE02C08BE20A
:1007A00001C080E2A7FC8DE2B60190E00E94160431
:1007B000891438F4B60180E390E00E9416049A94FC
:1007C000F7CF8A94F301E80DF11D8081B60190E026
:1007D0000E9416048110F5CF222009F442CEB60102
:1007E00080E290E00E9416042A94F6CFF6018681FA
:1007F000978102C08FEF9FEF2B96E2E10C94CC041F
:10080000FC010590615070400110D8F780959095DB
:100810008E0F9F1F0895FC016150704001900110E0
:10082000D8F7809590958E0F9F1F08950F931F9373
:10083000CF93DF93FB01238121FD03C08FEF9FEF57
:100840002CC022FF16C04681578124813581421772
:10085000530744F4A081B1819D012F5F3F4F318345
:1008600020838C93268137812F5F3F4F37832683E8
:1008700014C08B01EC01FB010084F185E02D09958A
:10088000892BE1F6D80116968D919C9117970196C8
:1008900017969C938E931697CE01DF91CF911F915F
:1008A0000F910895FA01AA27283051F1203181F1E2
:1008B000E8946F936E7F6E5F7F4F8F4F9F4FAF4F68
:1008C000B1E03ED0B4E03CD0670F781F891F9A1F7B
:1008D000A11D680F791F8A1F911DA11D6A0F711D2F
:1008E000811D911DA11D20D009F468943F912AE03B
:1008F000269F11243019305D3193DEF6CF01089523
:10090000462F4770405D4193B3E00FD0C9F7F6CF53
:10091000462F4F70405D4A3318F0495D31FD40521B
:10092000419302D0A9F7EACFB4E0A69597958795B1
:1009300077956795BA95C9F7009761057105089590
:100940009B01AC010A2E069457954795379527953C
:10095000BA95C9F7620F731F841F951FA01D0895D4
:100960002F923F924F925F926F927F928F929F92BF
:10097000AF92BF92CF92DF92EF92FF920F931F93AD
:10098000CF93DF93CDB7DEB7CA1BDB0B0FB6F8945E
:10099000DEBF0FBECDBF09942A88398848885F849E
:1009A0006E847D848C849B84AA84B984C884DF800F
:1009B000EE80FD800C811B81AA81B981CE0FD11DF3
:1009C0000FB6F894DEBF0FBECDBFED010895F894C9
:0209D000FFCF57
:1009D2002532642E2531640046656368613A20251C
:1009E2003032642F253032642F2530326420486F34
:1009F20072613A20253032643A253032643A253029
:100A020032640A0048756D656461643A2000250A03
:100A12000D0054656D70657261747572613A2000E3
:040A2200430A0D0076
:00000001FF
