:100000000C9434000C9451000C9451000C94510049
:100010000C9451000C9451000C9451000C9451001C
:100020000C9451000C9451000C9451000C94DB0181
:100030000C9451000C9451000C9451000C945100FC
:100040000C9451000C9451000C94CC010C94EA01D6
:100050000C9451000C9451000C9451000C945100DC
:100060000C9451000C94510011241FBECFEFD8E026
:10007000DEBFCDBF11E0A0E0B1E0E2E4FCE002C0F1
:1000800005900D92A435B107D9F722E0A4E5B1E0BF
:1000900001C01D92AA38B207E1F70E942C020C940D
:1000A0001F060C94000087B1816087B988B18E7FEC
:1000B00088B92FEF80EE90E0215080409040E1F72A
:1000C00000C0000088B1816088B9089587B18E7F33
:1000D00087B93099FECF309BFECF3099FECF08957F
:1000E00020E030E080E012C0309BFECF9AE99A9584
:1000F000F1F700C0309B07C090E0880F991F816026
:100100003099FECF01C0880F2F5F3F4F2830310557
:100110005CF30895EF92FF920F931F93CF93DF93B9
:10012000F82EE92E162F072F0E9453000E9466001A
:100130000E947000C5E8D2E088830E947000898325
:100140000E9470008A830E9470008B830E9470005E
:100150008C8397B1916097B9388149819A812B81BD
:10016000532F540F950F920F981324C01F924F9343
:100170001F923F93C0E0D1E0DF93CF93EF92FF92C5
:100180000E943503E5E8F2E0938182811F929F93FC
:100190001F928F93DF93CF930F931F930E9435038A
:1001A0008DB79EB740960FB6F8949EBF0FBE8DBF19
:1001B00081E001C080E0DF91CF911F910F91FF900E
:1001C000EF900895EF92FF920F931F93CF93DF93D9
:1001D000CDB7DEB7CE53D1400FB6F894DEBF0FBE19
:1001E000CDBFCE01825C9E4F7C018E01035C1E4F11
:1001F0009E01245C3E4FAE01455C5E4FBE01665CD5
:100200007E4F05970E944502C25CDE4F8881CE5327
:10021000D1401F928F93C35CDE4F8881CD53D14074
:100220001F928F93C45CDE4F8881CC53D1401F92C4
:100230008F93C75CDE4F8881C953D1401F928F9343
:10024000C65CDE4F8881CA53D1401F928F93C55C34
:10025000DE4F8881CB53D1401F928F9388E091E08D
:100260009F938F930C5311401F930F930E9435035C
:10027000BE016D5C7E4FCE01835D9E4F0E948A0061
:10028000D8010D900020E9F711978AE0E6E3F1E04C
:1002900001900D928A95E1F7BE01635D7E4FC80122
:1002A0000E942A03F80101900020E9F7319785E2C6
:1002B0009AE0918380838DE090E093838283D801DC
:1002C0000D900020E9F711978EE0E0E4F1E0019055
:1002D0000D928A95E1F7BE016D5C7E4FC8010E94C8
:1002E0002A03D8010D900020E9F7119785E0EEE48C
:1002F000F1E001900D928A95E1F7C8010E94FC029D
:100300000FB6F894DEBF0FBECDBFC25CDE4F0FB696
:10031000F894DEBF0FBECDBFDF91CF911F910F913B
:10032000FF90EF9008950E941C03882319F080939A
:10033000C60008950E9427030E94A40208950E9407
:10034000B602833711F0833569F40E9419038823BC
:1003500029F00E94EE020E94D40208950E94F60243
:100360000E94B902089580915401882321F00E94CF
:100370009F011092540180915601882321F00E9420
:10038000E2001092560180915501882321F00E94CD
:1003900093011092550108951F920F920FB60F927C
:1003A00011248F9381E0809354018F910F900FBEA1
:1003B0000F901F9018951F920F920FB60F92112455
:1003C0008F9381E0809356018F910F900FBE0F9015
:1003D0001F9018951F920F920FB60F9211248F93B2
:1003E00081E0809355018F910F900FBE0F901F9069
:1003F00018951092B90088E98093B80084E0809342
:10040000BC00089584EA8093BC008091BC008823DE
:10041000E4F7089584E98093BC0008958093BB00BD
:1004200084E88093BC008091BC008823E4F70895A1
:1004300084EC8093BC008091BC008823E4F7809119
:10044000BB00089584E88093BC008091BC008823A1
:10045000E4F78091BB00089587E690E00E94DA02FD
:100460000E9453000E94F9010E94C30278940E94E6
:10047000B301FDCF982F92959F70990F292F220FCE
:10048000220F920F8F70890F08958F929F92AF92D3
:10049000BF92CF92DF92EF92FF920F931F93CF9371
:1004A000DF93EC016B015A0149010E94020280EDC9
:1004B0000E940E0280E00E940E020E940A020E9428
:1004C000020281ED0E940E020E9418020E943A026E
:1004D000F70180830E9418020E943A02F80180838B
:1004E0000E9418020E943A02F40180830E941802BE
:1004F0000E9418020E943A02F50180830E941802AD
:100500000E943A02F60180830E9422020E943A026F
:1005100088830E940A02DF91CF911F910F91FF9073
:10052000EF90DF90CF90BF90AF909F908F90089505
:10053000E1ECF0E08081886080830895E1ECF0E0F8
:100540008081806280830895E1ECF0E080818F7D7E
:1005500080830895E1ECF0E08081806180830895DC
:10056000E1ECF0E080818068808308958091C6008E
:100570000895EFE6F0E0808182608083109285002C
:10058000109284000895E1E8F0E080818860808323
:1005900080818560808381E19AE7909389008093D0
:1005A00088000E94B9020895EFE6F0E080818D7F17
:1005B000808308959093C5008093C40086E0809363
:1005C000C2000E94AA020E94980281E08093570113
:1005D0000E94B00280E3809359010895E1ECF0E0BD
:1005E0008081877F80831092570108950E9498022E
:1005F00081E0809357010895CF93DF93EC018881C8
:10060000809359010E949E02E1E006C0AE2FB0E047
:10061000A75ABE4F8C93EF5FDE01AE0FB11D8C91D8
:100620008111F4CFF0E0E75AFE4F1082DF91CF91B5
:100630000895809157010895E091580181E08E0F4F
:1006400080935801F0E0E75AFE4F808108951092A0
:1006500058010895FB01DC010D900020E9F7119786
:1006600001900D920020E1F70895AEE0B0E0EBE3D9
:10067000F3E00C94F6050D891E8986E08C831A83BD
:1006800009838FEF9FE79E838D83AE01475E5F4FA7
:100690006F89788DCE0101960E945703EF81F8850E
:1006A000E00FF11F10822E96E4E00C941206ABE0EE
:1006B000B0E0EDE5F3E00C94E8056C017B018A0104
:1006C000FC0117821682838181FFCCC1CE01019685
:1006D0003C01F6019381F70193FD859193FF819190
:1006E0007F01882309F4BAC1853239F493FD8591DD
:1006F00093FF81917F01853229F4B60190E00E9439
:100700004E05E7CF912C212C312CFFE1F315D8F0C9
:100710008B3279F038F4803279F08332A1F4232DD2
:1007200020611DC08D3261F0803369F4232D21607A
:1007300016C0832D8260382EE32DE4603E2E2AC041
:10074000F32DF8601DC037FC2DC020ED280F2A3096
:1007500040F08E32B9F436FC81C1232D2064322E54
:1007600019C036FE06C08AE0989E200D1124922EF4
:1007700011C0EAE02E9E200D1124222EF32DF062EE
:100780003F2E08C08C3621F4832D8068382E02C09D
:10079000883641F4F70193FD859193FF81917F01A4
:1007A0008111B3CF982F9F7D9554933028F40C5F1F
:1007B0001F4F9FE399830DC0833631F0833771F06B
:1007C000833509F059C021C0F801808189830E5F0B
:1007D0001F4F88248394912C530113C02801F2E009
:1007E0004F0E511CF801A080B18036FE03C0692D68
:1007F00070E002C06FEF7FEFC5010E9443054C011E
:100800008201F32DFF773F2E16C0280122E0420E11
:10081000511CF801A080B18036FE03C0692D70E044
:1008200002C06FEF7FEFC5010E9438054C01F32D28
:10083000F0683F2E820133FC1BC0822D90E08816A9
:100840009906B0F4B60180E290E00E944E052A9429
:10085000F4CFF50137FC859137FE81915F01B60138
:1008600090E00E944E0521102A9421E0821A9108FE
:100870008114910471F7E8C0843611F0893641F58E
:10088000F80137FE07C060817181828193810C5F1E
:100890001F4F08C060817181072E000C880B990BD7
:1008A0000E5F1F4FF32DFF763F2E97FF09C09095E7
:1008B0008095709561957F4F8F4F9F4FF0683F2EC9
:1008C0002AE030E0A3010E948A05882E861845C0E0
:1008D000853731F4232D2F7EB22E2AE030E025C05B
:1008E000932D997FB92E8F36C1F018F4883579F0A1
:1008F000B5C0803719F0883721F0B0C0E92FE0612A
:10090000BE2EB4FE0DC0FB2DF460BF2E09C034FE18
:100910000AC0292F2660B22E06C028E030E005C0AC
:1009200020E130E002C020E132E0F801B7FE07C06C
:1009300060817181828193810C5F1F4F06C060814D
:10094000718180E090E00E5F1F4FA3010E948A0535
:10095000882E8618FB2DFF773F2E36FE0DC0232DE7
:100960002E7FA22E891458F434FE0BC032FC09C02D
:10097000832D8E7EA82E05C0B82CA32C03C0B82CC6
:1009800001C0B92CA4FE0FC0FE01E80DF11D80814D
:10099000803321F49A2D997EA92E09C0A2FE06C0AB
:1009A000B394B39404C08A2D867809F0B394A3FC61
:1009B00011C0A0FE06C0B21488F4280C922C9B181B
:1009C0000EC0B21460F4B60180E290E00E944E05C1
:1009D000B394F7CFB21418F42B1802C0982C212C22
:1009E000A4FE10C0B60180E390E00E944E05A2FE76
:1009F00017C0A1FC03C088E790E002C088E590E042
:100A0000B6010CC08A2D867859F0A1FE02C08BE297
:100A100001C080E2A7FC8DE2B60190E00E944E0585
:100A2000891438F4B60180E390E00E944E059A9450
:100A3000F7CF8A94F301E80DF11D8081B60190E0B3
:100A40000E944E058110F5CF222009F442CEB60156
:100A500080E290E00E944E052A94F6CFF60186814E
:100A6000978102C08FEF9FEF2B96E2E10C94040672
:100A7000FC010590615070400110D8F78095909569
:100A80008E0F9F1F0895FC0161507040019001106E
:100A9000D8F7809590958E0F9F1F08950F931F9301
:100AA000CF93DF93FB01238121FD03C08FEF9FEFE5
:100AB0002CC022FF16C04681578124813581421700
:100AC000530744F4A081B1819D012F5F3F4F3183D3
:100AD00020838C93268137812F5F3F4F3783268376
:100AE00014C08B01EC01FB010084F185E02D099518
:100AF000892BE1F6D80116968D919C911797019656
:100B000017969C938E931697CE01DF91CF911F91EC
:100B10000F910895FA01AA27283051F1203181F16F
:100B2000E8946F936E7F6E5F7F4F8F4F9F4FAF4FF5
:100B3000B1E03ED0B4E03CD0670F781F891F9A1F08
:100B4000A11D680F791F8A1F911DA11D6A0F711DBC
:100B5000811D911DA11D20D009F468943F912AE0C8
:100B6000269F11243019305D3193DEF6CF010895B0
:100B7000462F4770405D4193B3E00FD0C9F7F6CFE1
:100B8000462F4F70405D4A3318F0495D31FD4052A9
:100B9000419302D0A9F7EACFB4E0A695979587953F
:100BA00077956795BA95C9F700976105710508951E
:100BB0009B01AC010A2E06945795479537952795CA
:100BC000BA95C9F7620F731F841F951FA01D089562
:100BD0002F923F924F925F926F927F928F929F924D
:100BE000AF92BF92CF92DF92EF92FF920F931F933B
:100BF000CF93DF93CDB7DEB7CA1BDB0B0FB6F894EC
:100C0000DEBF0FBECDBF09942A88398848885F842B
:100C10006E847D848C849B84AA84B984C884DF809C
:100C2000EE80FD800C811B81AA81B981CE0FD11D80
:100C30000FB6F894DEBF0FBECDBFED010895F89456
:020C4000FFCFE4
:100C42002532642E253164000A46656368613A20C4
:100C5200253032642F253032642F2530326420480B
:100C62006F72613A20253032643A253032643A2577
:100C72003032640A0D0048756D656461643A200083
:100C820054656D70657261747572613A2000430A31
:040C92000D0D000044
:00000001FF
